{
  "txid": "fe28050b93faea61fa88c4c630f0e1f0a1c24d0082dd0e10d369e13212128f33",
  "hash": "fe28050b93faea61fa88c4c630f0e1f0a1c24d0082dd0e10d369e13212128f33",
  "version": 1,
  "size": 135,
  "vsize": 135,
  "weight": 540,
  "locktime": 0,
  "vin": [
    {
      "coinbase": "04ffff001d02fd04",
      "sequence": 4294967295
    }
  ],
  "vout": [
    {
      "value": 50,
      "n": 0,
      "scriptPubKey": {
        "asm": "04f5eeb2b10c944c6b9fbcfff94c35bdeecd93df977882babc7f3a2cf7f5c81d3b09a68db7f0e04f21de5d4230e75e6dbe7ad16eefe0d4325a62067dc6f369446a OP_CHECKSIG",
        "hex": "4104f5eeb2b10c944c6b9fbcfff94c35bdeecd93df977882babc7f3a2cf7f5c81d3b09a68db7f0e04f21de5d4230e75e6dbe7ad16eefe0d4325a62067dc6f369446aac",
        "type": "pubkey"
      }
    }
  ],
  "hex": "01000000010000000000000000000000000000000000000000000000000000000000000000ffffffff0804ffff001d02fd04ffffffff0100f2052a01000000434104f5eeb2b10c944c6b9fbcfff94c35bdeecd93df977882babc7f3a2cf7f5c81d3b09a68db7f0e04f21de5d4230e75e6dbe7ad16eefe0d4325a62067dc6f369446aac00000000"
}
